:100000000C9461000C9473000C9473000C947300B6
:100010000C9473000C9473000C9473000C94860081
:100020000C9473000C9473000C9473000C94730084
:100030000C9473000C9473000C9473000C94730074
:100040000C9413020C9473000C9473000C947300C2
:100050000C9473000C9473000C9473000C94730054
:100060000C9473000C94730000000008000201005F
:100070000003040700000000000000000102040863
:100080001020408001020408102001020408102002
:10009000040404040404040402020202020203032E
:1000A00003030303000000002300260029000000D2
:1000B0000000250028002B0000000000240027007D
:1000C0002A0011241FBECFEFD8E0DEBFCDBF21E054
:1000D000A0E0B1E001C01D92AC3DB207E1F70E9483
:1000E000A5030C94F6030C940000089528E130E079
:1000F00048EE50E060EA70E080E091E00E94BE01CE
:1001000068E873E180E090E00C9480021F920F9207
:100110000FB60F9211242F933F934F935F936F93DA
:100120007F938F939F93AF93BF93EF93FF938091B0
:1001300002010E947B0320910601309107012F5F8D
:100140003F4F3093070120930601909105019536AA
:1001500018F096E090930101909101019430C9F15B
:1001600028F4923069F09330D1F05EC0953009F4F4
:1001700051C0963009F058C091E09093D20151C01F
:10018000811152C0209106013091070124363105BA
:1001900008F442C01092D201109205011CC08130B7
:1001A00009F042C0E091050191E09E0F9093050196
:1001B000F0E02091060130910701EE0FFF1FEF5F85
:1001C000FE4F30872783109207011092060194E0BA
:1001D00029C0811117C0E091050191E09E0F909315
:1001E0000501F0E02091060130910701EE0FFF1F9D
:1001F000EF5FFE4F308727831092070110920601B0
:1002000093E010C020910601309107012536310599
:1002100058F007C0811108C0109207011092060122
:1002200003C095E090930101909104019923B9F0E6
:1002300081110AC080910301882321F0809103017C
:1002400061E009C02D9A0BC080910301882331F031
:100250008091030160E00E94450301C02D98FF9149
:10026000EF91BF91AF919F918F917F916F915F912E
:100270004F913F912F910F900FBE0F901F901895A7
:10028000CF93DF93EB011092700061E083E00E9456
:100290000C0360E083E00E9445039E01442737FD84
:1002A0004095542F60E47FE180E090E00E94B50328
:1002B00081E08093B00089E08093B1002093B30087
:1002C0008BEA289F212D112426952093B400DF91DD
:1002D000CF9108958F929F92AF92BF92CF92DF926B
:1002E000EF92FF926A017B0145305105610571056E
:1002F00000F10E945D024B015C0184E0C81AD10844
:10030000E108F108C80CD91CEA1CFB1CC814D9046C
:10031000EA04FB0438F40E945D0286169706A806DC
:10032000B906C8F30E945D026C157D058E059F0518
:10033000C8F3FF90EF90DF90CF90BF90AF909F9069
:100340008F9008952091B00020622093B000611535
:10035000710529F0AB0160E070E00C946A0108952A
:100360002091B0002F7D2093B0006115710529F018
:10037000AB0160E070E00C946A0108958F929F9247
:10038000AF92BF92CF92DF92EF92FF92CF93DF9323
:10039000EC014A015B01790168E370E00E944001D1
:1003A00060E679E0CE010E94A20168E572E0CE012C
:1003B0000E94B001C7010197C12CD12C7601C394D2
:1003C00004C0CC0CDD1CEE1CFF1C8A95D2F7C114B6
:1003D000D104E104F104E1F0D701C601882199219B
:1003E000AA21BB21892B8A2B8B2B19F060EB74E09F
:1003F00002C068E572E0CE010E94A20168E572E0E9
:10040000CE010E94B001F694E794D794C794DFCF51
:10041000DF91CF91FF90EF90DF90CF90BF90AF90A2
:100420009F908F9008951F920F920FB60F921124F4
:100430002F933F938F939F93AF93BF938091D4015A
:100440009091D501A091D601B091D7013091D301FF
:1004500023E0230F2D3720F40196A11DB11D05C007
:1004600026E8230F0296A11DB11D2093D30180938E
:10047000D4019093D501A093D601B093D701809178
:10048000D8019091D901A091DA01B091DB010196D8
:10049000A11DB11D8093D8019093D901A093DA01D9
:1004A000B093DB01BF91AF919F918F913F912F91BD
:1004B0000F900FBE0F901F9018953FB7F894809142
:1004C000D8019091D901A091DA01B091DB0126B554
:1004D000A89B05C02F3F19F00196A11DB11D3FBF7C
:1004E0006627782F892F9A2F620F711D811D911D0C
:1004F00042E0660F771F881F991F4A95D1F708952C
:10050000CF92DF92EF92FF92CF93DF936B017C014A
:100510000E945D02EB01C114D104E104F10489F0F1
:100520000E94B4030E945D026C1B7D0B683E734009
:1005300090F381E0C81AD108E108F108C851DC4FF6
:10054000EACFDF91CF91FF90EF90DF90CF900895A9
:10055000789484B5826084BD84B5816084BD85B59E
:10056000826085BD85B5816085BDEEE6F0E0808165
:1005700081608083E1E8F0E0108280818260808386
:10058000808181608083E0E8F0E080818160808309
:10059000E1EBF0E0808184608083E0EBF0E080813B
:1005A00081608083EAE7F0E08081846080838081DD
:1005B0008260808380818160808380818068808385
:1005C0001092C1000895833081F028F4813099F0B1
:1005D0008230A1F008958730A9F08830B9F08430D6
:1005E000D1F4809180008F7D03C0809180008F774F
:1005F00080938000089584B58F7702C084B58F7D85
:1006000084BD08958091B0008F7703C08091B000C1
:100610008F7D8093B0000895CF93DF9390E0FC012D
:10062000E458FF4F2491FC01E057FF4F8491882349
:1006300049F190E0880F991FFC01E854FF4FA59104
:10064000B49182559F4FFC01C591D4919FB7611120
:1006500008C0F8948C91209582238C938881822302
:100660000AC0623051F4F8948C91322F3095832374
:100670008C938881822B888304C0F8948C91822B80
:100680008C939FBFDF91CF9108950F931F93CF93CA
:10069000DF931F92CDB7DEB7282F30E0F901E8597C
:1006A000FF4F8491F901E458FF4F1491F901E0578D
:1006B000FF4F04910023C9F0882321F069830E9431
:1006C000E3026981E02FF0E0EE0FFF1FE255FF4FDC
:1006D000A591B4919FB7F8948C91611103C01095C6
:1006E000812301C0812B8C939FBF0F90DF91CF910D
:1006F0001F910F910895CF93DF93282F30E0F901D8
:10070000E859FF4F8491F901E458FF4FD491F90162
:10071000E057FF4FC491CC2391F081110E94E30276
:10072000EC2FF0E0EE0FFF1FEC55FF4FA591B491B9
:100730002C912D2381E090E021F480E002C080E044
:1007400090E0DF91CF91089508950E94A8020E9441
:10075000A4030E947500C0E0D0E00E9476002097BC
:10076000E1F30E940000F9CF0895052E97FB1EF4D7
:1007700000940E94CC0357FD07D00E94D40307FCCD
:1007800003D04EF40C94CC035095409530952195B0
:100790003F4F4F4F5F4F08959095809570956195AD
:1007A0007F4F8F4F9F4F0895A1E21A2EAA1BBB1BAC
:1007B000FD010DC0AA1FBB1FEE1FFF1FA217B3072D
:1007C000E407F50720F0A21BB30BE40BF50B661F43
:1007D000771F881F991F1A9469F760957095809507
:1007E00090959B01AC01BD01CF010895F894FFCF16
:00000001FF
